{
  "_format": "hh-sol-artifact-1",
  "contractName": "ArticleRegistry",
  "sourceName": "contracts/ArticleRegistry.sol",
  "abi": [
    {
      "inputs": [
        {
          "internalType": "address",
          "name": "stakingAddress",
          "type": "address"
        }
      ],
      "stateMutability": "nonpayable",
      "type": "constructor"
    },
    {
      "anonymous": false,
      "inputs": [
        {
          "indexed": true,
          "internalType": "uint256",
          "name": "id",
          "type": "uint256"
        },
        {
          "indexed": false,
          "internalType": "uint256",
          "name": "trustScore",
          "type": "uint256"
        },
        {
          "indexed": false,
          "internalType": "enum ArticleRegistry.Status",
          "name": "status",
          "type": "uint8"
        }
      ],
      "name": "AIScored",
      "type": "event"
    },
    {
      "anonymous": false,
      "inputs": [
        {
          "indexed": true,
          "internalType": "uint256",
          "name": "id",
          "type": "uint256"
        },
        {
          "indexed": false,
          "internalType": "enum ArticleRegistry.Status",
          "name": "status",
          "type": "uint8"
        }
      ],
      "name": "ArticleFinalized",
      "type": "event"
    },
    {
      "anonymous": false,
      "inputs": [
        {
          "indexed": true,
          "internalType": "uint256",
          "name": "id",
          "type": "uint256"
        },
        {
          "indexed": true,
          "internalType": "address",
          "name": "author",
          "type": "address"
        },
        {
          "indexed": false,
          "internalType": "string",
          "name": "ipfsCid",
          "type": "string"
        },
        {
          "indexed": false,
          "internalType": "bytes32",
          "name": "hash",
          "type": "bytes32"
        },
        {
          "indexed": false,
          "internalType": "uint256",
          "name": "version",
          "type": "uint256"
        }
      ],
      "name": "ArticleSubmitted",
      "type": "event"
    },
    {
      "anonymous": false,
      "inputs": [
        {
          "indexed": true,
          "internalType": "uint256",
          "name": "articleId",
          "type": "uint256"
        },
        {
          "indexed": true,
          "internalType": "uint256",
          "name": "proposalId",
          "type": "uint256"
        },
        {
          "indexed": false,
          "internalType": "enum ArticleRegistry.Status",
          "name": "status",
          "type": "uint8"
        },
        {
          "indexed": false,
          "internalType": "string",
          "name": "newIpfsCid",
          "type": "string"
        },
        {
          "indexed": false,
          "internalType": "bytes32",
          "name": "newContentHash",
          "type": "bytes32"
        }
      ],
      "name": "ArticleUpdateFinalized",
      "type": "event"
    },
    {
      "anonymous": false,
      "inputs": [
        {
          "indexed": true,
          "internalType": "uint256",
          "name": "articleId",
          "type": "uint256"
        },
        {
          "indexed": true,
          "internalType": "uint256",
          "name": "proposalId",
          "type": "uint256"
        },
        {
          "indexed": true,
          "internalType": "address",
          "name": "proposer",
          "type": "address"
        },
        {
          "indexed": false,
          "internalType": "string",
          "name": "newIpfsCid",
          "type": "string"
        },
        {
          "indexed": false,
          "internalType": "bytes32",
          "name": "newContentHash",
          "type": "bytes32"
        }
      ],
      "name": "ArticleUpdateProposed",
      "type": "event"
    },
    {
      "anonymous": false,
      "inputs": [
        {
          "indexed": true,
          "internalType": "uint256",
          "name": "articleId",
          "type": "uint256"
        },
        {
          "indexed": true,
          "internalType": "uint256",
          "name": "proposalId",
          "type": "uint256"
        },
        {
          "indexed": true,
          "internalType": "address",
          "name": "voter",
          "type": "address"
        },
        {
          "indexed": false,
          "internalType": "bool",
          "name": "decision",
          "type": "bool"
        }
      ],
      "name": "ArticleUpdateVoted",
      "type": "event"
    },
    {
      "anonymous": false,
      "inputs": [
        {
          "indexed": true,
          "internalType": "bytes32",
          "name": "role",
          "type": "bytes32"
        },
        {
          "indexed": true,
          "internalType": "bytes32",
          "name": "previousAdminRole",
          "type": "bytes32"
        },
        {
          "indexed": true,
          "internalType": "bytes32",
          "name": "newAdminRole",
          "type": "bytes32"
        }
      ],
      "name": "RoleAdminChanged",
      "type": "event"
    },
    {
      "anonymous": false,
      "inputs": [
        {
          "indexed": true,
          "internalType": "bytes32",
          "name": "role",
          "type": "bytes32"
        },
        {
          "indexed": true,
          "internalType": "address",
          "name": "account",
          "type": "address"
        },
        {
          "indexed": true,
          "internalType": "address",
          "name": "sender",
          "type": "address"
        }
      ],
      "name": "RoleGranted",
      "type": "event"
    },
    {
      "anonymous": false,
      "inputs": [
        {
          "indexed": true,
          "internalType": "bytes32",
          "name": "role",
          "type": "bytes32"
        },
        {
          "indexed": true,
          "internalType": "address",
          "name": "account",
          "type": "address"
        },
        {
          "indexed": true,
          "internalType": "address",
          "name": "sender",
          "type": "address"
        }
      ],
      "name": "RoleRevoked",
      "type": "event"
    },
    {
      "anonymous": false,
      "inputs": [
        {
          "indexed": true,
          "internalType": "uint256",
          "name": "version",
          "type": "uint256"
        },
        {
          "indexed": false,
          "internalType": "uint256",
          "name": "newRewardAmount",
          "type": "uint256"
        }
      ],
      "name": "UpdateExecuted",
      "type": "event"
    },
    {
      "anonymous": false,
      "inputs": [
        {
          "indexed": true,
          "internalType": "uint256",
          "name": "version",
          "type": "uint256"
        },
        {
          "indexed": true,
          "internalType": "address",
          "name": "proposer",
          "type": "address"
        },
        {
          "indexed": false,
          "internalType": "uint256",
          "name": "newRewardAmount",
          "type": "uint256"
        }
      ],
      "name": "UpdateProposed",
      "type": "event"
    },
    {
      "anonymous": false,
      "inputs": [
        {
          "indexed": true,
          "internalType": "uint256",
          "name": "version",
          "type": "uint256"
        },
        {
          "indexed": true,
          "internalType": "address",
          "name": "voter",
          "type": "address"
        },
        {
          "indexed": false,
          "internalType": "bool",
          "name": "vote",
          "type": "bool"
        }
      ],
      "name": "UpdateVoted",
      "type": "event"
    },
    {
      "anonymous": false,
      "inputs": [
        {
          "indexed": true,
          "internalType": "uint256",
          "name": "id",
          "type": "uint256"
        },
        {
          "indexed": true,
          "internalType": "address",
          "name": "validator",
          "type": "address"
        },
        {
          "indexed": false,
          "internalType": "bool",
          "name": "decision",
          "type": "bool"
        }
      ],
      "name": "Voted",
      "type": "event"
    },
    {
      "inputs": [],
      "name": "ADMIN_ROLE",
      "outputs": [
        {
          "internalType": "bytes32",
          "name": "",
          "type": "bytes32"
        }
      ],
      "stateMutability": "view",
      "type": "function"
    },
    {
      "inputs": [],
      "name": "AI_ROLE",
      "outputs": [
        {
          "internalType": "bytes32",
          "name": "",
          "type": "bytes32"
        }
      ],
      "stateMutability": "view",
      "type": "function"
    },
    {
      "inputs": [],
      "name": "DEFAULT_ADMIN_ROLE",
      "outputs": [
        {
          "internalType": "bytes32",
          "name": "",
          "type": "bytes32"
        }
      ],
      "stateMutability": "view",
      "type": "function"
    },
    {
      "inputs": [],
      "name": "PENALTY_AMOUNT",
      "outputs": [
        {
          "internalType": "uint256",
          "name": "",
          "type": "uint256"
        }
      ],
      "stateMutability": "view",
      "type": "function"
    },
    {
      "inputs": [],
      "name": "REWARD_AMOUNT",
      "outputs": [
        {
          "internalType": "uint256",
          "name": "",
          "type": "uint256"
        }
      ],
      "stateMutability": "view",
      "type": "function"
    },
    {
      "inputs": [
        {
          "internalType": "uint256",
          "name": "articleId",
          "type": "uint256"
        }
      ],
      "name": "getArticle",
      "outputs": [
        {
          "internalType": "uint256",
          "name": "id",
          "type": "uint256"
        },
        {
          "internalType": "address",
          "name": "author",
          "type": "address"
        },
        {
          "internalType": "string",
          "name": "ipfsCid",
          "type": "string"
        },
        {
          "internalType": "bytes32",
          "name": "contentHash",
          "type": "bytes32"
        },
        {
          "internalType": "uint256",
          "name": "trustScore",
          "type": "uint256"
        },
        {
          "internalType": "uint256",
          "name": "timestamp",
          "type": "uint256"
        },
        {
          "internalType": "enum ArticleRegistry.Status",
          "name": "status",
          "type": "uint8"
        },
        {
          "internalType": "uint256",
          "name": "yesVotes",
          "type": "uint256"
        },
        {
          "internalType": "uint256",
          "name": "noVotes",
          "type": "uint256"
        },
        {
          "internalType": "uint256",
          "name": "versionCount",
          "type": "uint256"
        }
      ],
      "stateMutability": "view",
      "type": "function"
    },
    {
      "inputs": [
        {
          "internalType": "uint256",
          "name": "articleId",
          "type": "uint256"
        },
        {
          "internalType": "uint256",
          "name": "versionIndex",
          "type": "uint256"
        }
      ],
      "name": "getArticleVersion",
      "outputs": [
        {
          "internalType": "string",
          "name": "ipfsCid",
          "type": "string"
        },
        {
          "internalType": "bytes32",
          "name": "contentHash",
          "type": "bytes32"
        },
        {
          "internalType": "uint256",
          "name": "timestamp",
          "type": "uint256"
        }
      ],
      "stateMutability": "view",
      "type": "function"
    },
    {
      "inputs": [
        {
          "internalType": "bytes32",
          "name": "role",
          "type": "bytes32"
        }
      ],
      "name": "getRoleAdmin",
      "outputs": [
        {
          "internalType": "bytes32",
          "name": "",
          "type": "bytes32"
        }
      ],
      "stateMutability": "view",
      "type": "function"
    },
    {
      "inputs": [
        {
          "internalType": "bytes32",
          "name": "role",
          "type": "bytes32"
        },
        {
          "internalType": "address",
          "name": "account",
          "type": "address"
        }
      ],
      "name": "grantRole",
      "outputs": [],
      "stateMutability": "nonpayable",
      "type": "function"
    },
    {
      "inputs": [
        {
          "internalType": "bytes32",
          "name": "role",
          "type": "bytes32"
        },
        {
          "internalType": "address",
          "name": "account",
          "type": "address"
        }
      ],
      "name": "hasRole",
      "outputs": [
        {
          "internalType": "bool",
          "name": "",
          "type": "bool"
        }
      ],
      "stateMutability": "view",
      "type": "function"
    },
    {
      "inputs": [
        {
          "internalType": "uint256",
          "name": "articleId",
          "type": "uint256"
        },
        {
          "internalType": "string",
          "name": "newIpfsCid",
          "type": "string"
        },
        {
          "internalType": "bytes32",
          "name": "newContentHash",
          "type": "bytes32"
        }
      ],
      "name": "proposeArticleUpdate",
      "outputs": [],
      "stateMutability": "nonpayable",
      "type": "function"
    },
    {
      "inputs": [
        {
          "internalType": "bytes32",
          "name": "role",
          "type": "bytes32"
        },
        {
          "internalType": "address",
          "name": "account",
          "type": "address"
        }
      ],
      "name": "renounceRole",
      "outputs": [],
      "stateMutability": "nonpayable",
      "type": "function"
    },
    {
      "inputs": [
        {
          "internalType": "bytes32",
          "name": "role",
          "type": "bytes32"
        },
        {
          "internalType": "address",
          "name": "account",
          "type": "address"
        }
      ],
      "name": "revokeRole",
      "outputs": [],
      "stateMutability": "nonpayable",
      "type": "function"
    },
    {
      "inputs": [
        {
          "internalType": "uint256",
          "name": "articleId",
          "type": "uint256"
        },
        {
          "internalType": "uint256",
          "name": "trustScore",
          "type": "uint256"
        }
      ],
      "name": "setAIScore",
      "outputs": [],
      "stateMutability": "nonpayable",
      "type": "function"
    },
    {
      "inputs": [
        {
          "internalType": "address",
          "name": "stakingAddress",
          "type": "address"
        }
      ],
      "name": "setStakingContract",
      "outputs": [],
      "stateMutability": "nonpayable",
      "type": "function"
    },
    {
      "inputs": [],
      "name": "stakingContract",
      "outputs": [
        {
          "internalType": "contract ValidatorStaking",
          "name": "",
          "type": "address"
        }
      ],
      "stateMutability": "view",
      "type": "function"
    },
    {
      "inputs": [
        {
          "internalType": "string",
          "name": "ipfsCid",
          "type": "string"
        },
        {
          "internalType": "bytes32",
          "name": "contentHash",
          "type": "bytes32"
        }
      ],
      "name": "submitArticle",
      "outputs": [
        {
          "internalType": "uint256",
          "name": "",
          "type": "uint256"
        }
      ],
      "stateMutability": "nonpayable",
      "type": "function"
    },
    {
      "inputs": [
        {
          "internalType": "bytes4",
          "name": "interfaceId",
          "type": "bytes4"
        }
      ],
      "name": "supportsInterface",
      "outputs": [
        {
          "internalType": "bool",
          "name": "",
          "type": "bool"
        }
      ],
      "stateMutability": "view",
      "type": "function"
    },
    {
      "inputs": [],
      "name": "totalArticles",
      "outputs": [
        {
          "internalType": "uint256",
          "name": "",
          "type": "uint256"
        }
      ],
      "stateMutability": "view",
      "type": "function"
    },
    {
      "inputs": [
        {
          "internalType": "uint256",
          "name": "articleId",
          "type": "uint256"
        },
        {
          "internalType": "bool",
          "name": "decision",
          "type": "bool"
        }
      ],
      "name": "vote",
      "outputs": [],
      "stateMutability": "nonpayable",
      "type": "function"
    }
  ],
  "bytecode": "0x60806040523480156200001157600080fd5b506040516200380138038062003801833981810160405281019062000037919062000293565b6200004c6000801b33620000c660201b60201c565b6200007e7fa49807205ce4d355092ef5a8a18f56e8913cf4a201fbe287825b095693c2177533620000c660201b60201c565b80600260006101000a81548173ffffffffffffffffffffffffffffffffffffffff021916908373ffffffffffffffffffffffffffffffffffffffff16021790555050620002c5565b620000d88282620001b760201b60201c565b620001b357600160008084815260200190815260200160002060000160008373ffffffffffffffffffffffffffffffffffffffff1673ffffffffffffffffffffffffffffffffffffffff16815260200190815260200160002060006101000a81548160ff021916908315150217905550620001586200022160201b60201c565b73ffffffffffffffffffffffffffffffffffffffff168173ffffffffffffffffffffffffffffffffffffffff16837f2f8788117e7eff1d82e926ec794901d17c78024a50270940304540a733656f0d60405160405180910390a45b5050565b600080600084815260200190815260200160002060000160008373ffffffffffffffffffffffffffffffffffffffff1673ffffffffffffffffffffffffffffffffffffffff16815260200190815260200160002060009054906101000a900460ff16905092915050565b600033905090565b600080fd5b600073ffffffffffffffffffffffffffffffffffffffff82169050919050565b60006200025b826200022e565b9050919050565b6200026d816200024e565b81146200027957600080fd5b50565b6000815190506200028d8162000262565b92915050565b600060208284031215620002ac57620002ab62000229565b5b6000620002bc848285016200027c565b91505092915050565b61352c80620002d56000396000f3fe608060405234801561001057600080fd5b506004361061012c5760003560e01c80639dd373b9116100ad578063c9d27afe11610071578063c9d27afe14610362578063cf8494421461037e578063d547741f1461039c578063ee99205c146103b8578063f1698d86146103d65761012c565b80639dd373b9146102b5578063a0728d64146102d1578063a217fddf146102ed578063bd85d8671461030b578063bef2e1ee146103445761012c565b80633ffd65cc116100f45780633ffd65cc146101f957806375b238fc1461021757806381924e631461023557806391d1485414610267578063991f6e9a146102975761012c565b806301ffc9a7146101315780632031a9e914610161578063248a9ca3146101915780632f2ff15d146101c157806336568abe146101dd575b600080fd5b61014b60048036038101906101469190611faa565b6103f2565b6040516101589190611ff2565b60405180910390f35b61017b600480360381019061017691906120a8565b61046c565b6040516101889190612121565b60405180910390f35b6101ab60048036038101906101a6919061213c565b610641565b6040516101b89190612178565b60405180910390f35b6101db60048036038101906101d691906121f1565b610660565b005b6101f760048036038101906101f291906121f1565b610681565b005b610201610704565b60405161020e9190612121565b60405180910390f35b61021f610710565b60405161022c9190612178565b60405180910390f35b61024f600480360381019061024a919061225d565b610734565b60405161025e9392919061232d565b60405180910390f35b610281600480360381019061027c91906121f1565b6108b1565b60405161028e9190611ff2565b60405180910390f35b61029f61091b565b6040516102ac9190612178565b60405180910390f35b6102cf60048036038101906102ca919061236b565b61093f565b005b6102eb60048036038101906102e6919061225d565b610a1d565b005b6102f5610c59565b6040516103029190612178565b60405180910390f35b61032560048036038101906103209190612398565b610c60565b60405161033b9a9998979695949392919061244b565b60405180910390f35b61034c610e18565b6040516103599190612121565b60405180910390f35b61037c6004803603810190610377919061251a565b610e22565b005b6103866112ac565b6040516103939190612121565b60405180910390f35b6103b660048036038101906103b191906121f1565b6112b8565b005b6103c06112d9565b6040516103cd91906125b9565b60405180910390f35b6103f060048036038101906103eb91906125d4565b6112ff565b005b60007f7965db0b000000000000000000000000000000000000000000000000000000007bffffffffffffffffffffffffffffffffffffffffffffffffffffffff1916827bffffffffffffffffffffffffffffffffffffffffffffffffffffffff19161480610465575061046482611624565b5b9050919050565b60006001600081548092919061048190612677565b9190505550600060015490506000600360008381526020019081526020016000209050818160000181905550338160010160006101000a81548173ffffffffffffffffffffffffffffffffffffffff021916908373ffffffffffffffffffffffffffffffffffffffff16021790555060008160040160006101000a81548160ff02191690836005811115610518576105176123d4565b5b0217905550600181600b018190555080600201604051806060016040528088888080601f016020809104026020016040519081016040528093929190818152602001838380828437600081840152601f19601f82011690508083019250505050505050815260200186815260200142815250908060018154018082558091505060019003906000526020600020906003020160009091909190915060008201518160000190816105c891906128f0565b50602082015181600101556040820151816002015550503373ffffffffffffffffffffffffffffffffffffffff16827fae98120472a42c226a14ecce4163ab9f58832d635267bc6c4a89353d41dbec3a888888600060405161062d9493929190612a39565b60405180910390a381925050509392505050565b6000806000838152602001908152602001600020600101549050919050565b61066982610641565b6106728161168e565b61067c83836116a2565b505050565b610689611782565b73ffffffffffffffffffffffffffffffffffffffff168173ffffffffffffffffffffffffffffffffffffffff16146106f6576040517f08c379a00000000000000000000000000000000000000000000000000000000081526004016106ed90612aeb565b60405180910390fd5b610700828261178a565b5050565b674563918244f4000081565b7fa49807205ce4d355092ef5a8a18f56e8913cf4a201fbe287825b095693c2177581565b606060008060006003600087815260200190815260200160002090506000816000015403610797576040517f08c379a000000000000000000000000000000000000000000000000000000000815260040161078e90612b57565b60405180910390fd5b806002018054905085106107e0576040517f08c379a00000000000000000000000000000000000000000000000000000000081526004016107d790612bc3565b60405180910390fd5b60008160020186815481106107f8576107f7612be3565b5b9060005260206000209060030201905080600001816001015482600201548280546108229061271d565b80601f016020809104026020016040519081016040528092919081815260200182805461084e9061271d565b801561089b5780601f106108705761010080835404028352916020019161089b565b820191906000526020600020905b81548152906001019060200180831161087e57829003601f168201915b5050505050925094509450945050509250925092565b600080600084815260200190815260200160002060000160008373ffffffffffffffffffffffffffffffffffffffff1673ffffffffffffffffffffffffffffffffffffffff16815260200190815260200160002060009054906101000a900460ff16905092915050565b7f7dd84470736c6a01afa6b9e8c8f1b622174523cf878b9fdc8283e91f393b7b4881565b7fa49807205ce4d355092ef5a8a18f56e8913cf4a201fbe287825b095693c217756109698161168e565b600073ffffffffffffffffffffffffffffffffffffffff168273ffffffffffffffffffffffffffffffffffffffff16036109d8576040517f08c379a00000000000000000000000000000000000000000000000000000000081526004016109cf90612c5e565b60405180910390fd5b81600260006101000a81548173ffffffffffffffffffffffffffffffffffffffff021916908373ffffffffffffffffffffffffffffffffffffffff1602179055505050565b7f7dd84470736c6a01afa6b9e8c8f1b622174523cf878b9fdc8283e91f393b7b48610a478161168e565b6064821115610a8b576040517f08c379a0000000000000000000000000000000000000000000000000000000008152600401610a8290612cca565b60405180910390fd5b60006003600085815260200190815260200160002090506000816000015403610ae9576040517f08c379a0000000000000000000000000000000000000000000000000000000008152600401610ae090612b57565b60405180910390fd5b60006005811115610afd57610afc6123d4565b5b8160040160009054906101000a900460ff166005811115610b2157610b206123d4565b5b14610b61576040517f08c379a0000000000000000000000000000000000000000000000000000000008152600401610b5890612d36565b60405180910390fd5b82816003018190555060508310610bea5760018160040160006101000a81548160ff02191690836005811115610b9a57610b996123d4565b5b0217905550837fa471a36d17997fa8fc12e473267771c362c2a6d9b91b477f1065e8e65bdc3099846001604051610bd2929190612d56565b60405180910390a2610be584600561186b565b610c53565b60028160040160006101000a81548160ff02191690836005811115610c1257610c116123d4565b5b0217905550837fa471a36d17997fa8fc12e473267771c362c2a6d9b91b477f1065e8e65bdc3099846002604051610c4a929190612d56565b60405180910390a25b50505050565b6000801b81565b6000806060600080600080600080600080600360008d815260200190815260200160002090506000816000015403610ccd576040517f08c379a0000000000000000000000000000000000000000000000000000000008152600401610cc490612b57565b60405180910390fd5b60008160020160018360020180549050610ce79190612d7f565b81548110610cf857610cf7612be3565b5b9060005260206000209060030201905081600001548260010160009054906101000a900473ffffffffffffffffffffffffffffffffffffffff16826000018360010154856003015485600201548760040160009054906101000a900460ff16886005015489600601548a60020180549050878054610d759061271d565b80601f0160208091040260200160405190810160405280929190818152602001828054610da19061271d565b8015610dee5780601f10610dc357610100808354040283529160200191610dee565b820191906000526020600020905b815481529060010190602001808311610dd157829003601f168201915b505050505097509b509b509b509b509b509b509b509b509b509b5050509193959799509193959799565b6000600154905090565b60006003600084815260200190815260200160002090506000816000015403610e80576040517f08c379a0000000000000000000000000000000000000000000000000000000008152600401610e7790612b57565b60405180910390fd5b60026005811115610e9457610e936123d4565b5b8160040160009054906101000a900460ff166005811115610eb857610eb76123d4565b5b14610ef8576040517f08c379a0000000000000000000000000000000000000000000000000000000008152600401610eef90612dff565b60405180910390fd5b8060070160003373ffffffffffffffffffffffffffffffffffffffff1673ffffffffffffffffffffffffffffffffffffffff16815260200190815260200160002060009054906101000a900460ff1615610f87576040517f08c379a0000000000000000000000000000000000000000000000000000000008152600401610f7e90612e6b565b60405180910390fd5b600260009054906101000a900473ffffffffffffffffffffffffffffffffffffffff1673ffffffffffffffffffffffffffffffffffffffff1663cb1c2b5c6040518163ffffffff1660e01b8152600401602060405180830381865afa158015610ff4573d6000803e3d6000fd5b505050506040513d601f19601f820116820180604052508101906110189190612ea0565b600260009054906101000a900473ffffffffffffffffffffffffffffffffffffffff1673ffffffffffffffffffffffffffffffffffffffff166360217267336040518263ffffffff1660e01b81526004016110739190612ecd565b602060405180830381865afa158015611090573d6000803e3d6000fd5b505050506040513d601f19601f820116820180604052508101906110b49190612ea0565b10156110f5576040517f08c379a00000000000000000000000000000000000000000000000000000000081526004016110ec90612f5a565b60405180910390fd5b60018160070160003373ffffffffffffffffffffffffffffffffffffffff1673ffffffffffffffffffffffffffffffffffffffff16815260200190815260200160002060006101000a81548160ff021916908315150217905550818160080160003373ffffffffffffffffffffffffffffffffffffffff1673ffffffffffffffffffffffffffffffffffffffff16815260200190815260200160002060006101000a81548160ff0219169083151502179055506111be3382600901611b2c90919063ffffffff16565b5081156111dd57600181600501600082825401925050819055506111f1565b600181600601600082825401925050819055505b3373ffffffffffffffffffffffffffffffffffffffff16837ff2913dbe661ee2acc4a046d8fbcdc792373bda34c41c6086484b5345e5785e5f846040516112389190611ff2565b60405180910390a36000816006015482600501546112569190612f7a565b9050600581106112a657600081606484600501546112749190612fae565b61127e919061301f565b9050605081106112985761129385600561186b565b6112a4565b6112a385600461186b565b5b505b50505050565b678ac7230489e8000081565b6112c182610641565b6112ca8161168e565b6112d4838361178a565b505050565b600260009054906101000a900473ffffffffffffffffffffffffffffffffffffffff1681565b6000600360008681526020019081526020016000209050600081600001540361135d576040517f08c379a000000000000000000000000000000000000000000000000000000000815260040161135490612b57565b60405180910390fd5b3373ffffffffffffffffffffffffffffffffffffffff168160010160009054906101000a900473ffffffffffffffffffffffffffffffffffffffff1673ffffffffffffffffffffffffffffffffffffffff16146113ef576040517f08c379a00000000000000000000000000000000000000000000000000000000081526004016113e69061309c565b60405180910390fd5b600580811115611402576114016123d4565b5b8160040160009054906101000a900460ff166005811115611426576114256123d4565b5b14611466576040517f08c379a000000000000000000000000000000000000000000000000000000000815260040161145d9061312e565b60405180910390fd5b600060046000878152602001908152602001600020600083600b01548152602001908152602001600020600c0154146114d4576040517f08c379a00000000000000000000000000000000000000000000000000000000081526004016114cb906131c0565b60405180910390fd5b600081600b0154905081600b0160008154809291906114f290612677565b91905055506000600460008881526020019081526020016000206000838152602001908152602001600020905086816000018190555081816001018190555085858260020191826115449291906131eb565b50838160030181905550338160040160006101000a81548173ffffffffffffffffffffffffffffffffffffffff021916908373ffffffffffffffffffffffffffffffffffffffff160217905550600281600b0160006101000a81548160ff021916908360058111156115b9576115b86123d4565b5b02179055504281600c01819055503373ffffffffffffffffffffffffffffffffffffffff1682887fc204a739552cd5d3ca484c0d7a2695008a2155a1fd55765762ea5eabedc6d5a5898989604051611613939291906132bb565b60405180910390a450505050505050565b60007f01ffc9a7000000000000000000000000000000000000000000000000000000007bffffffffffffffffffffffffffffffffffffffffffffffffffffffff1916827bffffffffffffffffffffffffffffffffffffffffffffffffffffffff1916149050919050565b61169f8161169a611782565b611b5c565b50565b6116ac82826108b1565b61177e57600160008084815260200190815260200160002060000160008373ffffffffffffffffffffffffffffffffffffffff1673ffffffffffffffffffffffffffffffffffffffff16815260200190815260200160002060006101000a81548160ff021916908315150217905550611723611782565b73ffffffffffffffffffffffffffffffffffffffff168173ffffffffffffffffffffffffffffffffffffffff16837f2f8788117e7eff1d82e926ec794901d17c78024a50270940304540a733656f0d60405160405180910390a45b5050565b600033905090565b61179482826108b1565b1561186757600080600084815260200190815260200160002060000160008373ffffffffffffffffffffffffffffffffffffffff1673ffffffffffffffffffffffffffffffffffffffff16815260200190815260200160002060006101000a81548160ff02191690831515021790555061180c611782565b73ffffffffffffffffffffffffffffffffffffffff168173ffffffffffffffffffffffffffffffffffffffff16837ff6391f5c32d9c69d2a47ea670b442974b53935d1edc7fd64eb21e047a839171b60405160405180910390a45b5050565b6000600360008481526020019081526020016000209050818160040160006101000a81548160ff021916908360058111156118a9576118a86123d4565b5b021790555060006118bc82600901611be1565b905060005b81811015611aed5760006118e18285600901611bf690919063ffffffff16565b905060008460080160008373ffffffffffffffffffffffffffffffffffffffff1673ffffffffffffffffffffffffffffffffffffffff16815260200190815260200160002060009054906101000a900460ff169050600580811115611949576119486123d4565b5b86600581111561195c5761195b6123d4565b5b1480156119665750805b8061199f5750600460058111156119805761197f6123d4565b5b866005811115611993576119926123d4565b5b14801561199e575080155b5b15611a4057600260009054906101000a900473ffffffffffffffffffffffffffffffffffffffff1673ffffffffffffffffffffffffffffffffffffffff1663bdbff2f183678ac7230489e800006040518363ffffffff1660e01b8152600401611a099291906132ed565b600060405180830381600087803b158015611a2357600080fd5b505af1158015611a37573d6000803e3d6000fd5b50505050611ad8565b600260009054906101000a900473ffffffffffffffffffffffffffffffffffffffff1673ffffffffffffffffffffffffffffffffffffffff16633e4208ef83674563918244f400006040518363ffffffff1660e01b8152600401611aa59291906132ed565b600060405180830381600087803b158015611abf57600080fd5b505af1158015611ad3573d6000803e3d6000fd5b505050505b50508080611ae590612677565b9150506118c1565b50837fa4e37a732a45040e040b6a2bfbf1e1bb3655e9266cd37bfad27e627f30e50e7484604051611b1e9190613316565b60405180910390a250505050565b6000611b54836000018373ffffffffffffffffffffffffffffffffffffffff1660001b611c10565b905092915050565b611b6682826108b1565b611bdd57611b7381611c80565b611b818360001c6020611cad565b604051602001611b92929190613405565b6040516020818303038152906040526040517f08c379a0000000000000000000000000000000000000000000000000000000008152600401611bd4919061343f565b60405180910390fd5b5050565b6000611bef82600001611ee9565b9050919050565b6000611c058360000183611efa565b60001c905092915050565b6000611c1c8383611f25565b611c75578260000182908060018154018082558091505060019003906000526020600020016000909190919091505582600001805490508360010160008481526020019081526020016000208190555060019050611c7a565b600090505b92915050565b6060611ca68273ffffffffffffffffffffffffffffffffffffffff16601460ff16611cad565b9050919050565b606060006002836002611cc09190612fae565b611cca9190612f7a565b67ffffffffffffffff811115611ce357611ce26126bf565b5b6040519080825280601f01601f191660200182016040528015611d155781602001600182028036833780820191505090505b5090507f300000000000000000000000000000000000000000000000000000000000000081600081518110611d4d57611d4c612be3565b5b60200101907effffffffffffffffffffffffffffffffffffffffffffffffffffffffffffff1916908160001a9053507f780000000000000000000000000000000000000000000000000000000000000081600181518110611db157611db0612be3565b5b60200101907effffffffffffffffffffffffffffffffffffffffffffffffffffffffffffff1916908160001a90535060006001846002611df19190612fae565b611dfb9190612f7a565b90505b6001811115611e9b577f3031323334353637383961626364656600000000000000000000000000000000600f861660108110611e3d57611e3c612be3565b5b1a60f81b828281518110611e5457611e53612be3565b5b60200101907effffffffffffffffffffffffffffffffffffffffffffffffffffffffffffff1916908160001a905350600485901c945080611e9490613461565b9050611dfe565b5060008414611edf576040517f08c379a0000000000000000000000000000000000000000000000000000000008152600401611ed6906134d6565b60405180910390fd5b8091505092915050565b600081600001805490509050919050565b6000826000018281548110611f1257611f11612be3565b5b9060005260206000200154905092915050565b600080836001016000848152602001908152602001600020541415905092915050565b600080fd5b600080fd5b60007fffffffff0000000000000000000000000000000000000000000000000000000082169050919050565b611f8781611f52565b8114611f9257600080fd5b50565b600081359050611fa481611f7e565b92915050565b600060208284031215611fc057611fbf611f48565b5b6000611fce84828501611f95565b91505092915050565b60008115159050919050565b611fec81611fd7565b82525050565b60006020820190506120076000830184611fe3565b92915050565b600080fd5b600080fd5b600080fd5b60008083601f8401126120325761203161200d565b5b8235905067ffffffffffffffff81111561204f5761204e612012565b5b60208301915083600182028301111561206b5761206a612017565b5b9250929050565b6000819050919050565b61208581612072565b811461209057600080fd5b50565b6000813590506120a28161207c565b92915050565b6000806000604084860312156120c1576120c0611f48565b5b600084013567ffffffffffffffff8111156120df576120de611f4d565b5b6120eb8682870161201c565b935093505060206120fe86828701612093565b9150509250925092565b6000819050919050565b61211b81612108565b82525050565b60006020820190506121366000830184612112565b92915050565b60006020828403121561215257612151611f48565b5b600061216084828501612093565b91505092915050565b61217281612072565b82525050565b600060208201905061218d6000830184612169565b92915050565b600073ffffffffffffffffffffffffffffffffffffffff82169050919050565b60006121be82612193565b9050919050565b6121ce816121b3565b81146121d957600080fd5b50565b6000813590506121eb816121c5565b92915050565b6000806040838503121561220857612207611f48565b5b600061221685828601612093565b9250506020612227858286016121dc565b9150509250929050565b61223a81612108565b811461224557600080fd5b50565b60008135905061225781612231565b92915050565b6000806040838503121561227457612273611f48565b5b600061228285828601612248565b925050602061229385828601612248565b9150509250929050565b600081519050919050565b600082825260208201905092915050565b60005b838110156122d75780820151818401526020810190506122bc565b60008484015250505050565b6000601f19601f8301169050919050565b60006122ff8261229d565b61230981856122a8565b93506123198185602086016122b9565b612322816122e3565b840191505092915050565b6000606082019050818103600083015261234781866122f4565b90506123566020830185612169565b6123636040830184612112565b949350505050565b60006020828403121561238157612380611f48565b5b600061238f848285016121dc565b91505092915050565b6000602082840312156123ae576123ad611f48565b5b60006123bc84828501612248565b91505092915050565b6123ce816121b3565b82525050565b7f4e487b7100000000000000000000000000000000000000000000000000000000600052602160045260246000fd5b60068110612414576124136123d4565b5b50565b600081905061242582612403565b919050565b600061243582612417565b9050919050565b6124458161242a565b82525050565b600061014082019050612461600083018d612112565b61246e602083018c6123c5565b8181036040830152612480818b6122f4565b905061248f606083018a612169565b61249c6080830189612112565b6124a960a0830188612112565b6124b660c083018761243c565b6124c360e0830186612112565b6124d1610100830185612112565b6124df610120830184612112565b9b9a5050505050505050505050565b6124f781611fd7565b811461250257600080fd5b50565b600081359050612514816124ee565b92915050565b6000806040838503121561253157612530611f48565b5b600061253f85828601612248565b925050602061255085828601612505565b9150509250929050565b6000819050919050565b600061257f61257a61257584612193565b61255a565b612193565b9050919050565b600061259182612564565b9050919050565b60006125a382612586565b9050919050565b6125b381612598565b82525050565b60006020820190506125ce60008301846125aa565b92915050565b600080600080606085870312156125ee576125ed611f48565b5b60006125fc87828801612248565b945050602085013567ffffffffffffffff81111561261d5761261c611f4d565b5b6126298782880161201c565b9350935050604061263c87828801612093565b91505092959194509250565b7f4e487b7100000000000000000000000000000000000000000000000000000000600052601160045260246000fd5b600061268282612108565b91507fffffffffffffffffffffffffffffffffffffffffffffffffffffffffffffffff82036126b4576126b3612648565b5b600182019050919050565b7f4e487b7100000000000000000000000000000000000000000000000000000000600052604160045260246000fd5b7f4e487b7100000000000000000000000000000000000000000000000000000000600052602260045260246000fd5b6000600282049050600182168061273557607f821691505b602082108103612748576127476126ee565b5b50919050565b60008190508160005260206000209050919050565b60006020601f8301049050919050565b600082821b905092915050565b6000600883026127b07fffffffffffffffffffffffffffffffffffffffffffffffffffffffffffffffff82612773565b6127ba8683612773565b95508019841693508086168417925050509392505050565b60006127ed6127e86127e384612108565b61255a565b612108565b9050919050565b6000819050919050565b612807836127d2565b61281b612813826127f4565b848454612780565b825550505050565b600090565b612830612823565b61283b8184846127fe565b505050565b5b8181101561285f57612854600082612828565b600181019050612841565b5050565b601f8211156128a4576128758161274e565b61287e84612763565b8101602085101561288d578190505b6128a161289985612763565b830182612840565b50505b505050565b600082821c905092915050565b60006128c7600019846008026128a9565b1980831691505092915050565b60006128e083836128b6565b9150826002028217905092915050565b6128f98261229d565b67ffffffffffffffff811115612912576129116126bf565b5b61291c825461271d565b612927828285612863565b600060209050601f83116001811461295a5760008415612948578287015190505b61295285826128d4565b8655506129ba565b601f1984166129688661274e565b60005b828110156129905784890151825560018201915060208501945060208101905061296b565b868310156129ad57848901516129a9601f8916826128b6565b8355505b6001600288020188555050505b505050505050565b82818337600083830152505050565b60006129dd83856122a8565b93506129ea8385846129c2565b6129f3836122e3565b840190509392505050565b6000819050919050565b6000612a23612a1e612a19846129fe565b61255a565b612108565b9050919050565b612a3381612a08565b82525050565b60006060820190508181036000830152612a548186886129d1565b9050612a636020830185612169565b612a706040830184612a2a565b95945050505050565b7f416363657373436f6e74726f6c3a2063616e206f6e6c792072656e6f756e636560008201527f20726f6c657320666f722073656c660000000000000000000000000000000000602082015250565b6000612ad5602f836122a8565b9150612ae082612a79565b604082019050919050565b60006020820190508181036000830152612b0481612ac8565b9050919050565b7f41727469636c65206e6f7420666f756e64000000000000000000000000000000600082015250565b6000612b416011836122a8565b9150612b4c82612b0b565b602082019050919050565b60006020820190508181036000830152612b7081612b34565b9050919050565b7f56657273696f6e206e6f7420666f756e64000000000000000000000000000000600082015250565b6000612bad6011836122a8565b9150612bb882612b77565b602082019050919050565b60006020820190508181036000830152612bdc81612ba0565b9050919050565b7f4e487b7100000000000000000000000000000000000000000000000000000000600052603260045260246000fd5b7f496e76616c696420616464726573730000000000000000000000000000000000600082015250565b6000612c48600f836122a8565b9150612c5382612c12565b602082019050919050565b60006020820190508181036000830152612c7781612c3b565b9050919050565b7f496e76616c69642073636f726500000000000000000000000000000000000000600082015250565b6000612cb4600d836122a8565b9150612cbf82612c7e565b602082019050919050565b60006020820190508181036000830152612ce381612ca7565b9050919050565b7f416c72656164792073636f726564000000000000000000000000000000000000600082015250565b6000612d20600e836122a8565b9150612d2b82612cea565b602082019050919050565b60006020820190508181036000830152612d4f81612d13565b9050919050565b6000604082019050612d6b6000830185612112565b612d78602083018461243c565b9392505050565b6000612d8a82612108565b9150612d9583612108565b9250828203905081811115612dad57612dac612648565b5b92915050565b7f4e6f7420756e6465722072657669657700000000000000000000000000000000600082015250565b6000612de96010836122a8565b9150612df482612db3565b602082019050919050565b60006020820190508181036000830152612e1881612ddc565b9050919050565b7f416c726561647920766f74656400000000000000000000000000000000000000600082015250565b6000612e55600d836122a8565b9150612e6082612e1f565b602082019050919050565b60006020820190508181036000830152612e8481612e48565b9050919050565b600081519050612e9a81612231565b92915050565b600060208284031215612eb657612eb5611f48565b5b6000612ec484828501612e8b565b91505092915050565b6000602082019050612ee260008301846123c5565b92915050565b7f4d757374207374616b65206174206c6561737420313030204e45575320746f6b60008201527f656e730000000000000000000000000000000000000000000000000000000000602082015250565b6000612f446023836122a8565b9150612f4f82612ee8565b604082019050919050565b60006020820190508181036000830152612f7381612f37565b9050919050565b6000612f8582612108565b9150612f9083612108565b9250828201905080821115612fa857612fa7612648565b5b92915050565b6000612fb982612108565b9150612fc483612108565b9250828202612fd281612108565b91508282048414831517612fe957612fe8612648565b5b5092915050565b7f4e487b7100000000000000000000000000000000000000000000000000000000600052601260045260246000fd5b600061302a82612108565b915061303583612108565b92508261304557613044612ff0565b5b828204905092915050565b7f4f6e6c7920617574686f722063616e2070726f706f7365207570646174657300600082015250565b6000613086601f836122a8565b915061309182613050565b602082019050919050565b600060208201905081810360008301526130b581613079565b9050919050565b7f41727469636c65206d757374206265207075626c697368656420746f2070726f60008201527f706f736520616e20757064617465000000000000000000000000000000000000602082015250565b6000613118602e836122a8565b9150613123826130bc565b604082019050919050565b600060208201905081810360008301526131478161310b565b9050919050565b7f50656e64696e67207570646174652070726f706f73616c20616c72656164792060008201527f6578697374730000000000000000000000000000000000000000000000000000602082015250565b60006131aa6026836122a8565b91506131b58261314e565b604082019050919050565b600060208201905081810360008301526131d98161319d565b9050919050565b600082905092915050565b6131f583836131e0565b67ffffffffffffffff81111561320e5761320d6126bf565b5b613218825461271d565b613223828285612863565b6000601f8311600181146132525760008415613240578287013590505b61324a85826128d4565b8655506132b2565b601f1984166132608661274e565b60005b8281101561328857848901358255600182019150602085019450602081019050613263565b868310156132a557848901356132a1601f8916826128b6565b8355505b6001600288020188555050505b50505050505050565b600060408201905081810360008301526132d68185876129d1565b90506132e56020830184612169565b949350505050565b600060408201905061330260008301856123c5565b61330f6020830184612112565b9392505050565b600060208201905061332b600083018461243c565b92915050565b600081905092915050565b7f416363657373436f6e74726f6c3a206163636f756e7420000000000000000000600082015250565b6000613372601783613331565b915061337d8261333c565b601782019050919050565b60006133938261229d565b61339d8185613331565b93506133ad8185602086016122b9565b80840191505092915050565b7f206973206d697373696e6720726f6c6520000000000000000000000000000000600082015250565b60006133ef601183613331565b91506133fa826133b9565b601182019050919050565b600061341082613365565b915061341c8285613388565b9150613427826133e2565b91506134338284613388565b91508190509392505050565b6000602082019050818103600083015261345981846122f4565b905092915050565b600061346c82612108565b91506000820361347f5761347e612648565b5b600182039050919050565b7f537472696e67733a20686578206c656e67746820696e73756666696369656e74600082015250565b60006134c06020836122a8565b91506134cb8261348a565b602082019050919050565b600060208201905081810360008301526134ef816134b3565b905091905056fea2646970667358221220be52c19abf4a30834a2c4de3cb3197c4348b1eddd8fa146e0b79a569f2d02b3564736f6c63430008140033",
  "linkReferences": {},
  "deployedLinkReferences": {}
}