{
  "_format": "hh-sol-artifact-1",
  "contractName": "ValidatorStaking",
  "sourceName": "contracts/ValidatorStaking.sol",
  "abi": [
    {
      "inputs": [
        {
          "internalType": "address",
          "name": "tokenAddress",
          "type": "address"
        }
      ],
      "stateMutability": "nonpayable",
      "type": "constructor"
    },
    {
      "anonymous": false,
      "inputs": [
        {
          "indexed": true,
          "internalType": "address",
          "name": "validator",
          "type": "address"
        },
        {
          "indexed": false,
          "internalType": "uint256",
          "name": "amount",
          "type": "uint256"
        }
      ],
      "name": "Rewarded",
      "type": "event"
    },
    {
      "anonymous": false,
      "inputs": [
        {
          "indexed": true,
          "internalType": "bytes32",
          "name": "role",
          "type": "bytes32"
        },
        {
          "indexed": true,
          "internalType": "bytes32",
          "name": "previousAdminRole",
          "type": "bytes32"
        },
        {
          "indexed": true,
          "internalType": "bytes32",
          "name": "newAdminRole",
          "type": "bytes32"
        }
      ],
      "name": "RoleAdminChanged",
      "type": "event"
    },
    {
      "anonymous": false,
      "inputs": [
        {
          "indexed": true,
          "internalType": "bytes32",
          "name": "role",
          "type": "bytes32"
        },
        {
          "indexed": true,
          "internalType": "address",
          "name": "account",
          "type": "address"
        },
        {
          "indexed": true,
          "internalType": "address",
          "name": "sender",
          "type": "address"
        }
      ],
      "name": "RoleGranted",
      "type": "event"
    },
    {
      "anonymous": false,
      "inputs": [
        {
          "indexed": true,
          "internalType": "bytes32",
          "name": "role",
          "type": "bytes32"
        },
        {
          "indexed": true,
          "internalType": "address",
          "name": "account",
          "type": "address"
        },
        {
          "indexed": true,
          "internalType": "address",
          "name": "sender",
          "type": "address"
        }
      ],
      "name": "RoleRevoked",
      "type": "event"
    },
    {
      "anonymous": false,
      "inputs": [
        {
          "indexed": true,
          "internalType": "address",
          "name": "validator",
          "type": "address"
        },
        {
          "indexed": false,
          "internalType": "uint256",
          "name": "amount",
          "type": "uint256"
        }
      ],
      "name": "Slashed",
      "type": "event"
    },
    {
      "anonymous": false,
      "inputs": [
        {
          "indexed": true,
          "internalType": "address",
          "name": "user",
          "type": "address"
        },
        {
          "indexed": false,
          "internalType": "uint256",
          "name": "amount",
          "type": "uint256"
        }
      ],
      "name": "Staked",
      "type": "event"
    },
    {
      "anonymous": false,
      "inputs": [
        {
          "indexed": true,
          "internalType": "address",
          "name": "user",
          "type": "address"
        },
        {
          "indexed": false,
          "internalType": "uint256",
          "name": "amount",
          "type": "uint256"
        }
      ],
      "name": "Unstaked",
      "type": "event"
    },
    {
      "inputs": [],
      "name": "ADMIN_ROLE",
      "outputs": [
        {
          "internalType": "bytes32",
          "name": "",
          "type": "bytes32"
        }
      ],
      "stateMutability": "view",
      "type": "function"
    },
    {
      "inputs": [],
      "name": "DEFAULT_ADMIN_ROLE",
      "outputs": [
        {
          "internalType": "bytes32",
          "name": "",
          "type": "bytes32"
        }
      ],
      "stateMutability": "view",
      "type": "function"
    },
    {
      "inputs": [],
      "name": "MIN_STAKE",
      "outputs": [
        {
          "internalType": "uint256",
          "name": "",
          "type": "uint256"
        }
      ],
      "stateMutability": "view",
      "type": "function"
    },
    {
      "inputs": [
        {
          "internalType": "bytes32",
          "name": "role",
          "type": "bytes32"
        }
      ],
      "name": "getRoleAdmin",
      "outputs": [
        {
          "internalType": "bytes32",
          "name": "",
          "type": "bytes32"
        }
      ],
      "stateMutability": "view",
      "type": "function"
    },
    {
      "inputs": [
        {
          "internalType": "bytes32",
          "name": "role",
          "type": "bytes32"
        },
        {
          "internalType": "address",
          "name": "account",
          "type": "address"
        }
      ],
      "name": "grantRole",
      "outputs": [],
      "stateMutability": "nonpayable",
      "type": "function"
    },
    {
      "inputs": [
        {
          "internalType": "bytes32",
          "name": "role",
          "type": "bytes32"
        },
        {
          "internalType": "address",
          "name": "account",
          "type": "address"
        }
      ],
      "name": "hasRole",
      "outputs": [
        {
          "internalType": "bool",
          "name": "",
          "type": "bool"
        }
      ],
      "stateMutability": "view",
      "type": "function"
    },
    {
      "inputs": [],
      "name": "newsToken",
      "outputs": [
        {
          "internalType": "contract IERC20",
          "name": "",
          "type": "address"
        }
      ],
      "stateMutability": "view",
      "type": "function"
    },
    {
      "inputs": [
        {
          "internalType": "bytes32",
          "name": "role",
          "type": "bytes32"
        },
        {
          "internalType": "address",
          "name": "account",
          "type": "address"
        }
      ],
      "name": "renounceRole",
      "outputs": [],
      "stateMutability": "nonpayable",
      "type": "function"
    },
    {
      "inputs": [
        {
          "internalType": "bytes32",
          "name": "role",
          "type": "bytes32"
        },
        {
          "internalType": "address",
          "name": "account",
          "type": "address"
        }
      ],
      "name": "revokeRole",
      "outputs": [],
      "stateMutability": "nonpayable",
      "type": "function"
    },
    {
      "inputs": [
        {
          "internalType": "address",
          "name": "validator",
          "type": "address"
        },
        {
          "internalType": "uint256",
          "name": "amount",
          "type": "uint256"
        }
      ],
      "name": "rewardValidator",
      "outputs": [],
      "stateMutability": "nonpayable",
      "type": "function"
    },
    {
      "inputs": [
        {
          "internalType": "address",
          "name": "validator",
          "type": "address"
        },
        {
          "internalType": "uint256",
          "name": "amount",
          "type": "uint256"
        }
      ],
      "name": "slashValidator",
      "outputs": [],
      "stateMutability": "nonpayable",
      "type": "function"
    },
    {
      "inputs": [
        {
          "internalType": "uint256",
          "name": "amount",
          "type": "uint256"
        }
      ],
      "name": "stake",
      "outputs": [],
      "stateMutability": "nonpayable",
      "type": "function"
    },
    {
      "inputs": [
        {
          "internalType": "address",
          "name": "",
          "type": "address"
        }
      ],
      "name": "stakedBalance",
      "outputs": [
        {
          "internalType": "uint256",
          "name": "",
          "type": "uint256"
        }
      ],
      "stateMutability": "view",
      "type": "function"
    },
    {
      "inputs": [
        {
          "internalType": "bytes4",
          "name": "interfaceId",
          "type": "bytes4"
        }
      ],
      "name": "supportsInterface",
      "outputs": [
        {
          "internalType": "bool",
          "name": "",
          "type": "bool"
        }
      ],
      "stateMutability": "view",
      "type": "function"
    },
    {
      "inputs": [],
      "name": "totalStaked",
      "outputs": [
        {
          "internalType": "uint256",
          "name": "",
          "type": "uint256"
        }
      ],
      "stateMutability": "view",
      "type": "function"
    },
    {
      "inputs": [
        {
          "internalType": "uint256",
          "name": "amount",
          "type": "uint256"
        }
      ],
      "name": "unstake",
      "outputs": [],
      "stateMutability": "nonpayable",
      "type": "function"
    }
  ],
  "bytecode": "0x60a06040523480156200001157600080fd5b506040516200223438038062002234833981810160405281019062000037919062000286565b6200004c6000801b33620000b960201b60201c565b6200007e7fa49807205ce4d355092ef5a8a18f56e8913cf4a201fbe287825b095693c2177533620000b960201b60201c565b8073ffffffffffffffffffffffffffffffffffffffff1660808173ffffffffffffffffffffffffffffffffffffffff168152505050620002b8565b620000cb8282620001aa60201b60201c565b620001a657600160008084815260200190815260200160002060000160008373ffffffffffffffffffffffffffffffffffffffff1673ffffffffffffffffffffffffffffffffffffffff16815260200190815260200160002060006101000a81548160ff0219169083151502179055506200014b6200021460201b60201c565b73ffffffffffffffffffffffffffffffffffffffff168173ffffffffffffffffffffffffffffffffffffffff16837f2f8788117e7eff1d82e926ec794901d17c78024a50270940304540a733656f0d60405160405180910390a45b5050565b600080600084815260200190815260200160002060000160008373ffffffffffffffffffffffffffffffffffffffff1673ffffffffffffffffffffffffffffffffffffffff16815260200190815260200160002060009054906101000a900460ff16905092915050565b600033905090565b600080fd5b600073ffffffffffffffffffffffffffffffffffffffff82169050919050565b60006200024e8262000221565b9050919050565b620002608162000241565b81146200026c57600080fd5b50565b600081519050620002808162000255565b92915050565b6000602082840312156200029f576200029e6200021c565b5b6000620002af848285016200026f565b91505092915050565b608051611f4b620002e9600039600081816104d5015281816108c6015281816109100152610afe0152611f4b6000f3fe608060405234801561001057600080fd5b50600436106101005760003560e01c806375b238fc11610097578063a694fc3a11610066578063a694fc3a146102ad578063bdbff2f1146102c9578063cb1c2b5c146102e5578063d547741f1461030357610100565b806375b238fc14610223578063817b1cd21461024157806391d148541461025f578063a217fddf1461028f57610100565b806336568abe116100d357806336568abe1461019d5780633e4208ef146101b957806360217267146101d55780636025b9111461020557610100565b806301ffc9a714610105578063248a9ca3146101355780632e17de78146101655780632f2ff15d14610181575b600080fd5b61011f600480360381019061011a91906113b6565b61031f565b60405161012c91906113fe565b60405180910390f35b61014f600480360381019061014a919061144f565b610399565b60405161015c919061148b565b60405180910390f35b61017f600480360381019061017a91906114dc565b6103b8565b005b61019b60048036038101906101969190611567565b610601565b005b6101b760048036038101906101b29190611567565b610622565b005b6101d360048036038101906101ce91906115a7565b6106a5565b005b6101ef60048036038101906101ea91906115e7565b6108ac565b6040516101fc9190611623565b60405180910390f35b61020d6108c4565b60405161021a919061169d565b60405180910390f35b61022b6108e8565b604051610238919061148b565b60405180910390f35b61024961090c565b6040516102569190611623565b60405180910390f35b61027960048036038101906102749190611567565b6109ad565b60405161028691906113fe565b60405180910390f35b610297610a17565b6040516102a4919061148b565b60405180910390f35b6102c760048036038101906102c291906114dc565b610a1e565b005b6102e360048036038101906102de91906115a7565b610c71565b005b6102ed610df6565b6040516102fa9190611623565b60405180910390f35b61031d60048036038101906103189190611567565b610e03565b005b60007f7965db0b000000000000000000000000000000000000000000000000000000007bffffffffffffffffffffffffffffffffffffffffffffffffffffffff1916827bffffffffffffffffffffffffffffffffffffffffffffffffffffffff19161480610392575061039182610e24565b5b9050919050565b6000806000838152602001908152602001600020600101549050919050565b600081116103fb576040517f08c379a00000000000000000000000000000000000000000000000000000000081526004016103f290611715565b60405180910390fd5b80600160003373ffffffffffffffffffffffffffffffffffffffff1673ffffffffffffffffffffffffffffffffffffffff16815260200190815260200160002054101561047d576040517f08c379a000000000000000000000000000000000000000000000000000000000815260040161047490611781565b60405180910390fd5b80600160003373ffffffffffffffffffffffffffffffffffffffff1673ffffffffffffffffffffffffffffffffffffffff16815260200190815260200160002060008282546104cc91906117d0565b925050819055507f000000000000000000000000000000000000000000000000000000000000000073ffffffffffffffffffffffffffffffffffffffff1663a9059cbb33836040518363ffffffff1660e01b815260040161052e929190611813565b6020604051808303816000875af115801561054d573d6000803e3d6000fd5b505050506040513d601f19601f820116820180604052508101906105719190611868565b6105b0576040517f08c379a00000000000000000000000000000000000000000000000000000000081526004016105a7906118e1565b60405180910390fd5b3373ffffffffffffffffffffffffffffffffffffffff167f0f5bb82176feb1b5e747e28471aa92156a04d9f3ab9f45f28e2d704232b93f75826040516105f69190611623565b60405180910390a250565b61060a82610399565b61061381610e8e565b61061d8383610ea2565b505050565b61062a610f82565b73ffffffffffffffffffffffffffffffffffffffff168173ffffffffffffffffffffffffffffffffffffffff1614610697576040517f08c379a000000000000000000000000000000000000000000000000000000000815260040161068e90611973565b60405180910390fd5b6106a18282610f8a565b5050565b7fa49807205ce4d355092ef5a8a18f56e8913cf4a201fbe287825b095693c217756106cf81610e8e565b600073ffffffffffffffffffffffffffffffffffffffff168373ffffffffffffffffffffffffffffffffffffffff160361073e576040517f08c379a0000000000000000000000000000000000000000000000000000000008152600401610735906119df565b60405180910390fd5b60008211610781576040517f08c379a000000000000000000000000000000000000000000000000000000000815260040161077890611a4b565b60405180910390fd5b81600160008573ffffffffffffffffffffffffffffffffffffffff1673ffffffffffffffffffffffffffffffffffffffff168152602001908152602001600020541015610803576040517f08c379a00000000000000000000000000000000000000000000000000000000081526004016107fa90611ab7565b60405180910390fd5b81600160008573ffffffffffffffffffffffffffffffffffffffff1673ffffffffffffffffffffffffffffffffffffffff168152602001908152602001600020600082825461085291906117d0565b925050819055508273ffffffffffffffffffffffffffffffffffffffff167f4ed05e9673c26d2ed44f7ef6a7f2942df0ee3b5e1e17db4b99f9dcd261a339cd8360405161089f9190611623565b60405180910390a2505050565b60016020528060005260406000206000915090505481565b7f000000000000000000000000000000000000000000000000000000000000000081565b7fa49807205ce4d355092ef5a8a18f56e8913cf4a201fbe287825b095693c2177581565b60007f000000000000000000000000000000000000000000000000000000000000000073ffffffffffffffffffffffffffffffffffffffff166370a08231306040518263ffffffff1660e01b81526004016109679190611ad7565b602060405180830381865afa158015610984573d6000803e3d6000fd5b505050506040513d601f19601f820116820180604052508101906109a89190611b07565b905090565b600080600084815260200190815260200160002060000160008373ffffffffffffffffffffffffffffffffffffffff1673ffffffffffffffffffffffffffffffffffffffff16815260200190815260200160002060009054906101000a900460ff16905092915050565b6000801b81565b60008111610a61576040517f08c379a0000000000000000000000000000000000000000000000000000000008152600401610a5890611715565b60405180910390fd5b600081600160003373ffffffffffffffffffffffffffffffffffffffff1673ffffffffffffffffffffffffffffffffffffffff16815260200190815260200160002054610aae9190611b34565b905068056bc75e2d63100000811015610afc576040517f08c379a0000000000000000000000000000000000000000000000000000000008152600401610af390611bda565b60405180910390fd5b7f000000000000000000000000000000000000000000000000000000000000000073ffffffffffffffffffffffffffffffffffffffff166323b872dd3330856040518463ffffffff1660e01b8152600401610b5993929190611bfa565b6020604051808303816000875af1158015610b78573d6000803e3d6000fd5b505050506040513d601f19601f82011682018060405250810190610b9c9190611868565b610bdb576040517f08c379a0000000000000000000000000000000000000000000000000000000008152600401610bd2906118e1565b60405180910390fd5b80600160003373ffffffffffffffffffffffffffffffffffffffff1673ffffffffffffffffffffffffffffffffffffffff168152602001908152602001600020819055503373ffffffffffffffffffffffffffffffffffffffff167f9e71bc8eea02a63969f509818f2dafb9254532904319f9dbda79b67bd34a5f3d83604051610c659190611623565b60405180910390a25050565b7fa49807205ce4d355092ef5a8a18f56e8913cf4a201fbe287825b095693c21775610c9b81610e8e565b600073ffffffffffffffffffffffffffffffffffffffff168373ffffffffffffffffffffffffffffffffffffffff1603610d0a576040517f08c379a0000000000000000000000000000000000000000000000000000000008152600401610d01906119df565b60405180910390fd5b60008211610d4d576040517f08c379a0000000000000000000000000000000000000000000000000000000008152600401610d4490611a4b565b60405180910390fd5b81600160008573ffffffffffffffffffffffffffffffffffffffff1673ffffffffffffffffffffffffffffffffffffffff1681526020019081526020016000206000828254610d9c9190611b34565b925050819055508273ffffffffffffffffffffffffffffffffffffffff167fb3b7a071186534c03b40695710096f289fd4ed6c1a374aff0bb648955e4fe56383604051610de99190611623565b60405180910390a2505050565b68056bc75e2d6310000081565b610e0c82610399565b610e1581610e8e565b610e1f8383610f8a565b505050565b60007f01ffc9a7000000000000000000000000000000000000000000000000000000007bffffffffffffffffffffffffffffffffffffffffffffffffffffffff1916827bffffffffffffffffffffffffffffffffffffffffffffffffffffffff1916149050919050565b610e9f81610e9a610f82565b61106b565b50565b610eac82826109ad565b610f7e57600160008084815260200190815260200160002060000160008373ffffffffffffffffffffffffffffffffffffffff1673ffffffffffffffffffffffffffffffffffffffff16815260200190815260200160002060006101000a81548160ff021916908315150217905550610f23610f82565b73ffffffffffffffffffffffffffffffffffffffff168173ffffffffffffffffffffffffffffffffffffffff16837f2f8788117e7eff1d82e926ec794901d17c78024a50270940304540a733656f0d60405160405180910390a45b5050565b600033905090565b610f9482826109ad565b1561106757600080600084815260200190815260200160002060000160008373ffffffffffffffffffffffffffffffffffffffff1673ffffffffffffffffffffffffffffffffffffffff16815260200190815260200160002060006101000a81548160ff02191690831515021790555061100c610f82565b73ffffffffffffffffffffffffffffffffffffffff168173ffffffffffffffffffffffffffffffffffffffff16837ff6391f5c32d9c69d2a47ea670b442974b53935d1edc7fd64eb21e047a839171b60405160405180910390a45b5050565b61107582826109ad565b6110ec57611082816110f0565b6110908360001c602061111d565b6040516020016110a1929190611d3a565b6040516020818303038152906040526040517f08c379a00000000000000000000000000000000000000000000000000000000081526004016110e39190611dbe565b60405180910390fd5b5050565b60606111168273ffffffffffffffffffffffffffffffffffffffff16601460ff1661111d565b9050919050565b6060600060028360026111309190611de0565b61113a9190611b34565b67ffffffffffffffff81111561115357611152611e22565b5b6040519080825280601f01601f1916602001820160405280156111855781602001600182028036833780820191505090505b5090507f3000000000000000000000000000000000000000000000000000000000000000816000815181106111bd576111bc611e51565b5b60200101907effffffffffffffffffffffffffffffffffffffffffffffffffffffffffffff1916908160001a9053507f78000000000000000000000000000000000000000000000000000000000000008160018151811061122157611220611e51565b5b60200101907effffffffffffffffffffffffffffffffffffffffffffffffffffffffffffff1916908160001a905350600060018460026112619190611de0565b61126b9190611b34565b90505b600181111561130b577f3031323334353637383961626364656600000000000000000000000000000000600f8616601081106112ad576112ac611e51565b5b1a60f81b8282815181106112c4576112c3611e51565b5b60200101907effffffffffffffffffffffffffffffffffffffffffffffffffffffffffffff1916908160001a905350600485901c94508061130490611e80565b905061126e565b506000841461134f576040517f08c379a000000000000000000000000000000000000000000000000000000000815260040161134690611ef5565b60405180910390fd5b8091505092915050565b600080fd5b60007fffffffff0000000000000000000000000000000000000000000000000000000082169050919050565b6113938161135e565b811461139e57600080fd5b50565b6000813590506113b08161138a565b92915050565b6000602082840312156113cc576113cb611359565b5b60006113da848285016113a1565b91505092915050565b60008115159050919050565b6113f8816113e3565b82525050565b600060208201905061141360008301846113ef565b92915050565b6000819050919050565b61142c81611419565b811461143757600080fd5b50565b60008135905061144981611423565b92915050565b60006020828403121561146557611464611359565b5b60006114738482850161143a565b91505092915050565b61148581611419565b82525050565b60006020820190506114a0600083018461147c565b92915050565b6000819050919050565b6114b9816114a6565b81146114c457600080fd5b50565b6000813590506114d6816114b0565b92915050565b6000602082840312156114f2576114f1611359565b5b6000611500848285016114c7565b91505092915050565b600073ffffffffffffffffffffffffffffffffffffffff82169050919050565b600061153482611509565b9050919050565b61154481611529565b811461154f57600080fd5b50565b6000813590506115618161153b565b92915050565b6000806040838503121561157e5761157d611359565b5b600061158c8582860161143a565b925050602061159d85828601611552565b9150509250929050565b600080604083850312156115be576115bd611359565b5b60006115cc85828601611552565b92505060206115dd858286016114c7565b9150509250929050565b6000602082840312156115fd576115fc611359565b5b600061160b84828501611552565b91505092915050565b61161d816114a6565b82525050565b60006020820190506116386000830184611614565b92915050565b6000819050919050565b600061166361165e61165984611509565b61163e565b611509565b9050919050565b600061167582611648565b9050919050565b60006116878261166a565b9050919050565b6116978161167c565b82525050565b60006020820190506116b2600083018461168e565b92915050565b600082825260208201905092915050565b7f416d6f756e74206d757374206265203e20300000000000000000000000000000600082015250565b60006116ff6012836116b8565b915061170a826116c9565b602082019050919050565b6000602082019050818103600083015261172e816116f2565b9050919050565b7f496e73756666696369656e74207374616b656400000000000000000000000000600082015250565b600061176b6013836116b8565b915061177682611735565b602082019050919050565b6000602082019050818103600083015261179a8161175e565b9050919050565b7f4e487b7100000000000000000000000000000000000000000000000000000000600052601160045260246000fd5b60006117db826114a6565b91506117e6836114a6565b92508282039050818111156117fe576117fd6117a1565b5b92915050565b61180d81611529565b82525050565b60006040820190506118286000830185611804565b6118356020830184611614565b9392505050565b611845816113e3565b811461185057600080fd5b50565b6000815190506118628161183c565b92915050565b60006020828403121561187e5761187d611359565b5b600061188c84828501611853565b91505092915050565b7f5472616e73666572206661696c65640000000000000000000000000000000000600082015250565b60006118cb600f836116b8565b91506118d682611895565b602082019050919050565b600060208201905081810360008301526118fa816118be565b9050919050565b7f416363657373436f6e74726f6c3a2063616e206f6e6c792072656e6f756e636560008201527f20726f6c657320666f722073656c660000000000000000000000000000000000602082015250565b600061195d602f836116b8565b915061196882611901565b604082019050919050565b6000602082019050818103600083015261198c81611950565b9050919050565b7f496e76616c69642076616c696461746f72000000000000000000000000000000600082015250565b60006119c96011836116b8565b91506119d482611993565b602082019050919050565b600060208201905081810360008301526119f8816119bc565b9050919050565b7f496e76616c696420616d6f756e74000000000000000000000000000000000000600082015250565b6000611a35600e836116b8565b9150611a40826119ff565b602082019050919050565b60006020820190508181036000830152611a6481611a28565b9050919050565b7f496e73756666696369656e74207374616b650000000000000000000000000000600082015250565b6000611aa16012836116b8565b9150611aac82611a6b565b602082019050919050565b60006020820190508181036000830152611ad081611a94565b9050919050565b6000602082019050611aec6000830184611804565b92915050565b600081519050611b01816114b0565b92915050565b600060208284031215611b1d57611b1c611359565b5b6000611b2b84828501611af2565b91505092915050565b6000611b3f826114a6565b9150611b4a836114a6565b9250828201905080821115611b6257611b616117a1565b5b92915050565b7f4d757374207374616b65206174206c6561737420313030204e45575320746f6b60008201527f656e730000000000000000000000000000000000000000000000000000000000602082015250565b6000611bc46023836116b8565b9150611bcf82611b68565b604082019050919050565b60006020820190508181036000830152611bf381611bb7565b9050919050565b6000606082019050611c0f6000830186611804565b611c1c6020830185611804565b611c296040830184611614565b949350505050565b600081905092915050565b7f416363657373436f6e74726f6c3a206163636f756e7420000000000000000000600082015250565b6000611c72601783611c31565b9150611c7d82611c3c565b601782019050919050565b600081519050919050565b60005b83811015611cb1578082015181840152602081019050611c96565b60008484015250505050565b6000611cc882611c88565b611cd28185611c31565b9350611ce2818560208601611c93565b80840191505092915050565b7f206973206d697373696e6720726f6c6520000000000000000000000000000000600082015250565b6000611d24601183611c31565b9150611d2f82611cee565b601182019050919050565b6000611d4582611c65565b9150611d518285611cbd565b9150611d5c82611d17565b9150611d688284611cbd565b91508190509392505050565b6000601f19601f8301169050919050565b6000611d9082611c88565b611d9a81856116b8565b9350611daa818560208601611c93565b611db381611d74565b840191505092915050565b60006020820190508181036000830152611dd88184611d85565b905092915050565b6000611deb826114a6565b9150611df6836114a6565b9250828202611e04816114a6565b91508282048414831517611e1b57611e1a6117a1565b5b5092915050565b7f4e487b7100000000000000000000000000000000000000000000000000000000600052604160045260246000fd5b7f4e487b7100000000000000000000000000000000000000000000000000000000600052603260045260246000fd5b6000611e8b826114a6565b915060008203611e9e57611e9d6117a1565b5b600182039050919050565b7f537472696e67733a20686578206c656e67746820696e73756666696369656e74600082015250565b6000611edf6020836116b8565b9150611eea82611ea9565b602082019050919050565b60006020820190508181036000830152611f0e81611ed2565b905091905056fea2646970667358221220444b342684d2b7dd9d19b32eccd42c80c9525d562643b2c0733163810679dfeb64736f6c63430008140033",
  "linkReferences": {},
  "deployedLinkReferences": {}
}